:020000040800F2
:10000000C8060020B501000881140008E50F0008AB
:100010007D14000871020008491900080000000062
:100020000000000000000000000000003D19000872
:10003000750200080000000085140008411900083E
:10004000CF010008CF010008CF010008CF01000850
:10005000CF010008CF010008CF010008CF01000840
:10006000CF010008CF010008CF010008CF01000830
:10007000CF010008CF010008CF010008CF01000820
:10008000CF010008CF010008CF010008CF01000810
:10009000CF010008CF010008CF010008CF01000800
:1000A000CF010008CF010008CF010008CF010008F0
:1000B000CF010008CF010008CF010008CF010008E0
:1000C000CF010008CF010008CF010008CF010008D0
:1000D000CF010008CF010008CF010008CF010008C0
:1000E000CF010008CF010008CF01000800F002F89E
:1000F00000F050F814A696E8000CB244B344DA4578
:1001000001D100F047F8BAE80F000FA696E83000DA
:10011000A5EB040504EB0607AAEB0704A7F101070A
:100120004FEA15154FEA3414A4F10104AC4201D38F
:1001300000F030F813F0010F18BFFB1A43F0010371
:1001400000F001F8DBE71847041B0000241B000047
:10015000103A24BF78C878C1FAD8520724BF30C8F3
:1001600030C144BF04680C60704700007047000055
:100170000023002400250026103A28BF78C1FBD8B0
:10018000520728BF30C148BF0B6070471FB51FBD65
:1001900010B510BD00F031F81146FFF7F7FF01F080
:1001A000D5FB00F04FF803B4FFF7F2FF03BC00F0FB
:1001B00057F800000948804709480047FEE7FEE776
:1001C000FEE7FEE7FEE7FEE7FEE7FEE7FEE7FEE707
:1001D00004480549054A064B7047000045190008C8
:1001E000ED000008C8000020C8060020C80200205A
:1001F000C8020020704770477047754600F02CF821
:10020000AE4605006946534620F00700854618B003
:1002100020B5FFF7DDFFBDE820404FF000064FF0AE
:1002200000074FF000084FF0000BAC46ACE8C009E7
:10023000ACE8C009ACE8C009ACE8C00921F007018E
:100240008D46704710B50446AFF300802046BDE8E8
:100250001040FFF7A8BF00000048704710000020C2
:1002600001491820ABBEFEE72600020070470000DF
:10027000FEE7000070470000EFF3108072B600BF89
:10028000FEE70000B0B5044600F018F9054640F25C
:100290000000C2F200000078611C18BF044400BFD7
:1002A00000F00CF9401BA042FAD3B0BD2DE9F04F8D
:1002B00082B00E68002E00F0FD8041F20042C4F2D0
:1002C0000102042340F2004E904208BF03234FF680
:1002D000FF7CC4F2010E009300240123C1F2100C34
:1002E0004FF0000A4FF000094BE000BF41F200025E
:1002F000C4F20102009F904208BF022704F00C03E1
:100300000F229A402BEA020207FA03F34FEA9A05FA
:100310001A4346F825204E6840F20C45F202DEF8FA
:10032000082054BF22EA080242EA0802C4F201058A
:10033000CEF808202A68B30254BF22EA080242EA33
:1003400008022A60B303DEF8042054BF22EA080240
:1003500042EA0802F303CEF80420DEF800204FF052
:10036000010354BF22EA080242EA0802CEF8002044
:100370000E680AF1010A36FA0AF204F1040400F0E8
:10038000998003FA0AFB16EA0B08F1D04E6866451D
:1003900012DC122E56D8DFE806F0350B4D495555C4
:1003A000555555555555555555555545510000BF51
:1003B000D1F80C9046E000BF4FF6FF72C1F2210267
:1003C00096420FDC0022C1F2110296421AD000229E
:1003D000C1F21202964215D00022C1F221029642C9
:1003E00010D02FE00022C1F2220296420AD0002251
:1003F000C1F23102964205D00022C1F23202964289
:1004000020D100BF8A684AB1012A14BFC0F814B0D5
:10041000C0F810B04FF0080914E000BF4FF0040915
:1004200010E000BFCA6802F104090BE04FF00009B8
:1004300008E000BFCA6802F1080903E0CA6802F1D7
:100440000C0900BF02462646B8F5807F24BF04325F
:10045000203E17680F25B54027EA050509FA06F67C
:1004600035431560CA79D2067FF582AF41F2180391
:10047000C4F202031A68AEF57E7642F001021A60F9
:100480001A6802F001020192019A2AF0030256F85A
:1004900002B040F60002C4F20102904208D040F6D9
:1004A0000042C4F2010290427FF420AF012725E709
:1004B000002723E702B0BDE8F08F000040F2C4003F
:1004C000C2F2000000687047002804BF0120704796
:1004D000F0B581B0044690F83D0028B9002084F8BA
:1004E0003C00204600F090F9242084F83D0020686C
:1004F000016821F001010160016841F400410160DF
:10050000016821F40041016000F042FB636848F299
:10051000A16CC0F2010C40F60011C0F23D01634530
:100520003CBF48F28041C0F21E01884202D2012045
:1005300001B0F0BD4DF68361C4F21B31A0FB011286
:100540002168970CD1F804E04FF496762EF03F0521
:1005500045EA92454D60774348F638160D6AC0F279
:100560004106A7FB067625F03F07634538BF960C8A
:10057000721C3A430A62CA6948F2A0664CF6FF77D9
:10058000C0F20106B34222EA07020BD801385B0031
:10059000B0FBF3F001306FF31F30042898BF042044
:1005A0001BE000BFA768013857B119277B43B0FB98
:1005B000F3F001306FF31F3070B100F5804007E0B9
:1005C00003EB4303B0FBF3F001306FF31F3018B1BE
:1005D00000F5004001E000BF01201043C861086839
:1005E000D4E9072320F0C00010431843086088684E
:1005F00048F2FF3204F10C0790438CCF18431043AC
:10060000A6698860C86820F0FF0038433043C8609E
:10061000086840F00100086000202021206484F870
:100620003D10206384F83E0001B0F0BD2DE9F04399
:1006300083B01E46174689460446FFF73FFF94F8ED
:100640003D10202924D10546206800BF8169890713
:100650001AD5FFF733FF411B20681A29F6D38169A9
:100660008907F3D500202021206384F83D1084F809
:100670003E00216C41F02001216484F83C000220FE
:1006800003B0BDE8F08300BF94F83C10012903D10A
:10069000022003B0BDE8F083012184F83C1001681A
:1006A000C90703D1016841F001010160016840F20E
:1006B000020821F400610160212184F83D1010211D
:1006C00084F83E100021216467626685618DC0F266
:1006D00001082185A8F10211E162E16A0A9E11F583
:1006E000803F18BF01291DD1016841F4807101606C
:1006F00020464FF0011100223346009500F0D2FC55
:1007000050B120680068C00544BF4FF400702064F9
:10071000012003B0BDE8F0832069B0F5804F07D118
:10072000FE2015E00829DFD0216B1229DCD0DFE79D
:10073000062000EAD9102168F030086108F10601AE
:10074000204632462B4600F093FD0028E0D1FF20E2
:10075000216800EA090008612046414632462B46DE
:1007600000F086FD0028D3D1002002902068416966
:10077000029180690290029806E000BF204631464F
:100780002A4600F031FC18BB208D68B32046314664
:100790002A4600F0D9FDD8B9606A2168024612F8ED
:1007A000013B0B616262628D013A6285228D531EAC
:1007B00023854F697F07E1D51B04DFD043780230E2
:1007C0000B616062608D01386085901E2085D5E7E1
:1007D000206C04289CD12068016841F400710160FC
:1007E000012003B0BDE8F0832068016841F4007186
:1007F0000160202084F83D00002084F83E0084F849
:100800003C0003B0BDE8F08310B586B0006845F247
:100810000041C4F2000188424FF00000CDE904001D
:10082000CDE9020002D006B010BD00BF41F21804AD
:10083000C4F20204206802A940F008002060206889
:1008400000F00800019001984FF4407002901220CF
:1008500003900320059040F60040C4F20100FFF72A
:1008600025FD0420C4F20100016841F0E06141F07F
:1008700002010160606840F400106060606800F48C
:1008800000100190019806B010BD000040F2000079
:1008900040F2C401C2F20000C2F2000100780A680E
:1008A000104408607047000080B542F20000C4F2B6
:1008B0000200016841F010010160032000F07AF8A5
:1008C0000F2000F005F800F027F8002080BD0000A0
:1008D00070B540F20006C2F2000640F2080132781C
:1008E000C2F200014FF47A730968B3FBF2F20446D6
:1008F000B1FBF2F1084600F05FFB0F2C4FF0010551
:1009000008D838B94FF0FF3021460022002500F00A
:1009100025F87460284670BD82B041F21800C4F218
:1009200002000168022241F001010160016801F04A
:10093000010101910199416841F080514160406895
:1009400000F08050009000980420C4F2010001687B
:1009500062F31A61016002B07047000010B54EF6F4
:100960000C5CCEF2000CDCF80030C3F3022E8EF0EB
:100970000704042C28BF0424BEF103034FF0FF3EFC
:100980000EFA04F438BF0023A14399400EFA03F392
:100990009A43114300F00F0200F160430901043A49
:1009A00003F564436244002848BF02F10C03197048
:1009B00010BD00004EF60C51CEF200010A684FF651
:1009C000FF031A4060F30A2242F0806040F0FD709D
:1009D00008607047002804BF012070472DE9F043EC
:1009E00081B042F20008C4F202080446D8F80000C0
:1009F0000D4600F0070081420CD9D8F8000020F025
:100A000007002843C8F80000D8F8000000F00700ED
:100A1000A8426CD1206841F204098107C4F202099E
:100A200017D5410705D5D9F8001041F4E061C9F8A0
:100A30000010010705D5D9F8001041F46051C9F83C
:100A40000010D9F80010A26821F0F0011143C9F894
:100A50000010C00742D1D8F8000000F0070085421E
:100A60000CD2D8F8000020F007002843C8F8000096
:100A7000D8F8000000F00700A84238D120684107EC
:100A800007D5D9F80010E26821F4E0611143C9F8F4
:100A90000010000708D5D9F80000216920F4605043
:100AA00040EAC100C9F80000D9F8002002F00C00AB
:100AB000082841F20020C0F27A004DD141F63C43B3
:100AC000C2F38341C0F60003595CD20338D440F628
:100AD0000010C0F23D0048433EE000BF606859F896
:100AE000041C022808D0012826D1890306D401203D
:100AF00001B0BDE8F08300BF8901F8D5D9F8001036
:100B000021F003010843C9F80000FFF7D7FC0646AF
:100B100041F28837D9F80000616800F00C00B0EBB2
:100B2000810F98D0FFF7CAFC801BB842F2D903208E
:100B300001B0BDE8F08300BF8907D8D5DEE700BF6C
:100B4000D9F8002041F63A43C2F34042C0F6000310
:100B50009A5C4843B0FBF2F0D9F8001041F6E81275
:100B6000C1F30311C0F60002515C40F2080220FA02
:100B700001F140F20400C2F200000068C2F200027B
:100B80001160FFF7A5FE002001B0BDE8F083000072
:100B900040F2080041F20401C2F20000C4F2020176
:100BA0000068096841F6F812C1F30221C0F600029C
:100BB000515CC84070470000002804BF0120704706
:100BC0002DE9F04182B00446007841F20006C007EA
:100BD000C4F202060CD0706800F00C00042840F04B
:100BE00081803068800303D56068002800F046816A
:100BF000207880071BD5706810F00C0F09D0706842
:100C000000F00C00082840F087807068C00300F1F5
:100C100083803068800703D52069012840F02E8149
:100C20003068616920F0F80040EAC1003060207847
:100C3000000713D4207840072CD4E569002D00F07C
:100C40001881706800F00C00082840F0A780012D82
:100C500040F00481012002B0BDE8F081A0690028C5
:100C600000F084800020C4F242200121C0F88014EA
:100C7000FFF724FC054600BF706A800700F1B280D0
:100C8000FFF71CFC401B0228F6D9032002B0BDE888
:100C9000F08100BFF0695FEAC00808D4F06940F055
:100CA0008050F061F06900F080500090009847F2A9
:100CB0000007C4F200073868C00549D4386840F41A
:100CC00080703860FFF7FAFB054600BF3868C00542
:100CD0003ED4FFF7F3FB401B6428F7D9032002B092
:100CE000BDE8F081706800F00C00082803D170683E
:100CF000C0033FF576AF61683068002900F00C81D1
:100D0000B1F5A02F00F00081B1F5803F40F01A81CD
:100D100040F480301CE100BF2069002840F2000050
:100D2000C4F2422000F0888001210160FFF7C6FB79
:100D3000054600BF306880073FF572AFFFF7BEFB86
:100D4000401B0228F6D9032002B0BDE8F08100BFA5
:100D5000E168306A002900F09D80052900F092804A
:100D6000012940F0AF8040F00100B1E00020C4F262
:100D700042200021C0F88014FFF7A0FB054600BF09
:100D8000706A80077FF556AFFFF798FB401B02287B
:100D9000F6D9032002B0BDE8F08100BF0027C4F2FD
:100DA000422700203866FFF789FB022D05460DD14A
:100DB0003068800140F1DE80FFF780FB401B022895
:100DC0004FF00300F4D902B0BDE8F0813068800133
:100DD0004FD5FFF773FB401B02284FF00300F5D9F6
:100DE000F1E700BF40F20800C2F20000006844F6DC
:100DF000D351C1F26201A0FB0101480A019000BF7A
:100E000000BF0198411E002801913FF413AF00BFBD
:100E10000198411E002801913FF40CAF00BF0198DA
:100E2000411E002801913FF405AF00BF0198411E0B
:100E300000280191E4D1FDE600210160FFF73EFBAF
:100E4000054600BF306880077FF5F1AEFFF736FB3F
:100E5000401B02284FF00300F4D9B4E77068216A00
:100E600000F480328A4209D1616A00F4701088422D
:100E700004D1002002B0BDE8F08100BF012002B023
:100E8000BDE8F08140F004003062306A40F00100BB
:100E90001EE000BF20F001003062306A20F0040044
:100EA0003062FFF70BFB054641F28837306A800756
:100EB00020D5FFF703FB401BB8424FF00300F5D9E4
:100EC00081E700BF20F001003062306A20F00400AA
:100ED0003062FFF7F3FA054641F28837306A80073F
:100EE00008D4FFF7EBFA401BB842F7D9032002B051
:100EF000BDE8F081B8F1000F3FF59FAEF06920F03A
:100F00008050F06199E600BF40F480203060306886
:100F100040F480301CE000BF20F480303060306846
:100F200020F480203060FFF7C9FA0546306880035E
:100F30007FF55EAEFFF7C2FA401B64284FF0030056
:100F4000F4D940E720F480303060306820F480200D
:100F50003060FFF7B3FA0546306880033FF548AECE
:100F6000FFF7ACFA401B6428F6D9032002B0BDE8B5
:100F7000F08100BF206AB0F5803F05D17168A2689A
:100F800021F40031114371607168626A21F47411B7
:100F900011430843706001203866FFF78FFA04465A
:100FA000306880013FF565AFFFF788FA001B022823
:100FB0004FF00300F4D906E7411E0020B0EB116F9B
:100FC0001CBF012070474EF21002CEF200025160A9
:100FD0004EF62351CEF20001F0230B7007219060F2
:100FE00011607047FEE7000070B50368044653F8CF
:100FF000140F400711D40E46481C29D086BB00BFF1
:101000001868400527D4FFF759FA236853F8140FDE
:10101000400737D518684007F2D5002070BD00BFE3
:1010200018684007F9D41868400514D418684007B8
:10103000F3D4186840050ED418684007EDD418683A
:10104000400508D4186840074FF0000048BF70BD45
:1010500018684005E4D56FF480601860042012E041
:10106000154603E053F8140F4007D6D4186840051E
:10107000F1D4FFF723FA401B2368B042F2D9586934
:101080004007EFD4202000212022216384F83D2056
:1010900084F83E10226C10432064012084F83C1038
:1010A00070BD00002DE9F041054600681E4614465B
:1010B00001F47F0201338FB242D0DDF81880B2F51F
:1010C000803F40F0878040693840C01BB0FA80F014
:1010D0004009844240F0C8804EB924E0406938405D
:1010E000C01BB0FA80F04009844240F0BD80FFF799
:1010F000E5F9A0EB08012868B142EFD94169394010
:10110000C91BB1FA81F149098C42E7D19BE000BFCC
:1011100040693840C01BB0FA80F0400984424FF06B
:10112000000040F0A280FFF7C9F928684169394002
:10113000C91BB1FA81F149098C42E9D183E000BFB2
:10114000B2F5803F24D100BF41693940C91BB1FAD3
:1011500081F149098C4240F0878041693940C91BBF
:10116000B1FA81F149098C4240F07E8041693940F1
:10117000C91BB1FA81F149098C4275D141693940E5
:10118000C91BB1FA81F149098C42DDD06CE000BF86
:1011900081693940C91BB1FA81F149098C4263D197
:1011A00081693940C91BB1FA81F149098C425BD18F
:1011B00081693940C91BB1FA81F149098C4253D187
:1011C00081693940C91BB1FA81F149098C42DFD0EC
:1011D0004AE000BF80693840C01BB0FA80F0400987
:1011E000844241D146B923E080693840C01BB0FA3F
:1011F00080F04009844237D1FFF760F9A0EB080185
:101200002868B142F0D981693940C91BB1FA81F12E
:1012100049098C42E8D116E080693840C01BB0FA19
:1012200080F0400984424FF0000018BFBDE8F08113
:10123000FFF744F9286881693940C91BB1FA81F187
:1012400049098C42E8D100202021286385F83D100F
:1012500085F83E00296C41F02001296485F83C00A6
:101260000120BDE8F08100BF0020BDE8F081000052
:10127000F0B581B0044600681D4643698FB203EAA9
:101280000701B94202D1002001B0F0BD4169164604
:1012900001323CD0490512D47EB300BFFFF70EF9EE
:1012A000411B2068B14203D941693940B9422BD171
:1012B00041693940B942E6D041694905EED5016836
:1012C00041F4007101606FF48061416104200021EC
:1012D0002022216384F83D2084F83E10226C1043C4
:1012E000206484F83C10012001B0F0BD4169394010
:1012F000B942C8D041694905E1D4FFF7DFF8206859
:1013000041693940B942F1D02020E0E741694905FF
:10131000D5D441693940B942B5D041694905CED4E7
:1013200041693940B942AED041694905C7D44169E4
:101330003940B942A7D041694905C0D44169394013
:10134000B942E3D19FE7000070B50368044653F843
:10135000140F000611D40E46481C29D086BB00BFCE
:101360001868400527D4FFF7A9F8236853F8140F2D
:10137000000637D518680006F2D5002070BD00BF02
:1013800018680006F9D41868400514D418680006D7
:10139000F3D4186840050ED418680006EDD4186818
:1013A000400508D4186800064FF0000048BF70BD23
:1013B00018684005E4D56FF480601860042012E0DE
:1013C000154603E053F8140F0006D6D418684005FC
:1013D000F1D4FFF773F8401B2368B042F2D9586983
:1013E0000006EFD4202000212022216384F83D2034
:1013F00084F83E10226C10432064012084F83C10D5
:1014000070BD000082B041F21800C4F20200016811
:1014100041F004010160016801F0040101910199AA
:10142000016841F008010160006800F008000090C8
:10143000009802B07047000080B540F2700045F29D
:101440000041C2F20000C4F2000148F2A062002391
:101450004FF4804CC0F2010280E80E00C0E9033C6A
:10146000C0E90533C0E90733FFF72EF8002808BFAD
:1014700080BDBDE88040FEF7FFBE0000FEE7000033
:10148000FEE70000704700002DE9F04F83B040F206
:10149000700400260A27C2F200040DF1080A4FF07A
:1014A00040080DF10A054FF0000900BF49F0B000F7
:1014B0008DF805002046782101AA02238DF80460EA
:1014C0000097FFF7B3F8204678210DF106020223BA
:1014D000ADF806600097FFF7A9F84FF48050ADF81B
:1014E000080020467821524602230097FFF79EF815
:1014F0004FF0000B204678212A460223ADF80A80DF
:101500000097FFF793F80BF101004FFA80FBBBF156
:10151000FF3FEFDCB9F1070F09F10109C6D303B0B2
:10152000BDE8F08F2DE9F04182B06420FEF7AAFEFD
:1015300040F270044FF42E40C2F20004ADF80600F1
:101540000A250DF106022046782102230095FFF7B7
:101550006DF84FF400580DF1060220467821022361
:10156000ADF806800095FFF761F84FF480560DF155
:101570000602204678210223ADF806600095FFF7A9
:1015800055F84FF43040ADF806000DF10602204644
:10159000782102230095FFF749F84FF44840ADF851
:1015A00006000DF106022046782102230095FFF780
:1015B0003DF800270DF10602204678210223ADF800
:1015C00006700095FFF732F80DF1060220467821EB
:1015D0000223ADF806600095FFF728F84FF480402D
:1015E000ADF806000DF10602204678210223009591
:1015F000FFF71CF84FF40140ADF806000DF10602AC
:101600002046782102230095FFF710F84FF4FE40A2
:10161000ADF806000DF10602204678210223009560
:10162000FFF704F84FF42140ADF806000DF1060273
:101630002046782102230095FEF7F8FF4FF426405C
:10164000ADF806000DF10602204678210223009530
:10165000FEF7ECFF4FF42840ADF806000DF106024E
:101660002046782102230095FEF7E0FF4FF47C50DE
:10167000ADF806000DF10602204678210223009500
:10168000FEF7D4FF4FF42440ADF806000DF106023A
:101690002046782102230095FEF7C8FF4FF45340FF
:1016A000ADF806000DF106022046782102230095D0
:1016B000FEF7BCFF0DF10602204678210223ADF8AB
:1016C00006700095FEF7B2FF4FF45540ADF80600E6
:1016D0000DF106022046782102230095FEF7A6FFB1
:1016E0004FF47040ADF806000DF106022046782157
:1016F00002230095FEF79AFF4FF45940ADF806001B
:101700000DF106022046782102230095FEF78EFF98
:101710004FF40850ADF806000DF10602204678217E
:1017200002230095FEF782FF4FF45A40ADF8060001
:101730000DF106022046782102230095FEF776FF80
:101740004FF49050ADF806000DF1060220467821C6
:1017500002230095FEF76AFF4FF45B40ADF80600E8
:101760000DF106022046782102230095FEF75EFF68
:101770000DF10602204678210223ADF8068000957F
:10178000FEF754FF4FF40D40ADF806000DF10602D0
:101790002046782102230095FEF748FF4FF4A05021
:1017A000ADF806000DF106022046782102230095CF
:1017B000FEF73CFF4FF42F40ADF806000DF1060296
:1017C0002046782102230095FEF730FFFFF75CFEEC
:1017D00002B0BDE8F08100002DE9F04F83B005466E
:1017E00050B240F2700AA2F120062028A1F1500068
:1017F000C2F2000AB8BF002600278DF805004FF09E
:101800000A0801AA5046782102238DF80470CDF809
:101810000080FEF70BFF05F00F008DF807000DF1BB
:1018200006025046782102238DF80670CDF800801C
:10183000FEF7FCFE280910308DF8090002AA504678
:10184000782102238DF80870CDF80080FEF7EEFEB7
:10185000F0B241F6002100EB4000C0F6000101EBC0
:10186000400711F810000DF10A0B40268DF80B000F
:10187000504678215A4602238DF80A60CDF8008040
:10188000FEF7D4FE7878BC78FD7897F804908DF850
:101890000B00504678215A4602238DF80A60CDF895
:1018A0000080FEF7C3FE504678215A4602238DF889
:1018B0000A608DF80B40CDF80080FEF7B7FE504669
:1018C00078215A4602238DF80A608DF80B50CDF826
:1018D0000080FEF7ABFE504678215A4602238DF871
:1018E0000A608DF80B90CDF80080FEF79FFE7879A6
:1018F00078218DF80B0050465A4602238DF80A6075
:10190000CDF80080FEF792FE03B0BDE8F08F000036
:101910001378002B08BF704770B50C460546561E5D
:10192000E8B2DAB22146FFF757FFB3780635002B4D
:1019300006F10106F4D1BDE8704070477047000021
:10194000FEF7A4BF70470000FEE7000090B0FEF76E
:10195000ABFF00240120CDE90B44CDE909440A90F6
:1019600010200B904FF4601002250F9006A8CDE9CF
:1019700007440695CDE90D54FFF71EF920B1EFF3AA
:10198000108072B6FEE700BF0F20CDE901054FF4CD
:101990008060CDE9040401A802210394FFF71AF83E
:1019A00020B1EFF3108072B6FEE700BFFFF72AFD0B
:1019B000FFF742FDFFF7B6FD05A200200021FFF76B
:1019C000A7FF06A200200221FFF7A2FFFEE700BF4B
:1019D00048656C6C6F2053544D3332004F4C454476
:1019E000204F4B210000000000000000000000001C
:1019F00001020304060708090000000001020304B5
:101A000000000000000000005F0000000007000769
:101A10000000147F147F1400242A7F2A120023134D
:101A2000086462003649552250000005030000009A
:101A3000001C224100000041221C000014083E0846
:101A4000140008083E080800005030000000080894
:101A50000808080000606000000020100804020070
:101A60003E5149453E0000427F40000042615149DD
:101A700046002141454B31001814127F10002745C4
:101A8000454539003C4A49493000017109050300C8
:101A9000364949493600064949291E0000363600B4
:101AA0000000005636000000081422410000141403
:101AB0001414140000412214080002015109060008
:101AC000324979413E007E1111117E007F4949491A
:101AD00036003E41414122007F4141221C007F49A6
:101AE000494941007F09090901003E4149497A00FD
:101AF0007F0808087F0000417F4100002040413FEF
:101B000001007F08142241007F40404040007F02D6
:101B10000C027F007F0408107F003E4141413E00DF
:101B20007F09090906003E4151215E007F091929FC
:101B3000460046494949310001017F0101003F400B
:101B400040403F001F2040201F007F2018207F00C2
:101B500063140814630007087008070061514945C1
:101B60004300007F414100000204081020000041B2
:101B7000417F000004020102040080808080800018
:101B80000001020400002054545478007F4844446B
:101B90003800384444442000384444487F003854D6
:101BA00054541800087E090102000C5252523E00A3
:101BB0007F080404780000447D4000002040443D3C
:101BC00000007F102844000000417F4000007C049A
:101BD000180478007C080404780038444444380031
:101BE0007C1414140800081414187C007C080404E5
:101BF0000800485454542000043F444020003C4016
:101C000040207C001C2040201C003C4030403C0018
:101C10004428102844000C5050503C004464544C5C
:101C2000440000083641000000007F000000004131
:101C30003608000008040810080001020203040529
:101C4000060708090A0B0C0D0E0F1010701C000877
:101C5000000000201000000050010008801C000857
:101C600010000020B806000070010008000000000D
:101C7000010000001000000000127A0000000000C7
:04000005080000ED02
:00000001FF
