:020000040800F2
:1000000030070020CD01000861220008F11C000823
:100010005D220008310B00082927000800000000BD
:100020000000000000000000000000001D27000884
:10003000350B000800000000652200082127000899
:10004000E7010008E7010008E7010008E7010008F0
:10005000E7010008E7010008E7010008E7010008E0
:10006000E7010008E7010008E7010008E7010008D0
:10007000E7010008E7010008E7010008E7010008C0
:10008000E7010008E7010008E7010008E7010008B0
:10009000E7010008E7010008E7010008E7010008A0
:1000A000E7010008E7010008E7010008E701000890
:1000B000E7010008E7010008E7010008E701000880
:1000C000E7010008E7010008E7010008E701000870
:1000D000E7010008E7010008E7010008E701000860
:1000E000E7010008E7010008E701000800F002F856
:1000F00000F05DF814A696E8000CB244B344DA456B
:1001000001D100F054F8BAE80F000FA696E83000CD
:10011000A5EB040504EB0607AAEB0704A7F101070A
:100120004FEA15154FEA3414A4F10104AC4201D38F
:1001300000F03DF813F0010F18BFFB1A43F0010364
:1001400000F001F8DBE718473834000058340000AD
:10015000103A24BF78C878C1FAD8520724BF30C8F3
:1001600030C144BF04680C60704700007047000055
:100170000023002400250026103A28BF78C1FBD8B0
:10018000520728BF30C148BF0B607047662903F093
:100190007980002070471FB500F010FB040000209C
:1001A000002102F007FFE0601FBD10B510BD00F098
:1001B00005FC1146FFF7EFFF02F0B8FA00F023FC50
:1001C00003B4FFF7F2FF03BC00F066FC0948804768
:1001D00009480047FEE7FEE7FEE7FEE7FEE7FEE729
:1001E000FEE7FEE7FEE7FEE704480549054A064B41
:1001F0007047000025270008ED00000830010020AE
:100200003007002030030020300300200FB41CB55D
:100210000C0007AA009007D04142A14202D320441B
:10022000401E01E04FF0FF30074B7B4469460190D0
:10023000069800F0A8FA0020002C01D00099087060
:100240001CBC5DF814FB00007F0500002DE9F047A1
:100250004FF0000A89460446C0F820A02046E16815
:100260008847002876D0252806D0D4E90121904778
:10027000206A401C2062F1E7E1682046002588479B
:10028000C4F81CA006460027C4F818A02A2E09D0DE
:10029000304602F087FE38B304EB8708303EC8F8DA
:1002A000186019E059F8041B204604EB870291619D
:1002B000E1688847012F064618D1E069002820DA56
:1002C00025F020051DE0D8F8180000EB800006EBB3
:1002D00040003038C8F818002046E16888470646D4
:1002E00002F060FE0028EED1012F0AD02E2E08D198
:1002F0002046E16888477F1C0646022F45F020050E
:10030000C4DBA069002803DA404245F00105A06182
:10031000E80701D025F01005B6B1A6F14100192873
:1003200002D8203645F400654A463146204625600D
:100330004D46FFF72BFF58B1012806D0ED1D25F0E3
:10034000070000F1080989E704E005F1040985E7E1
:1003500030468AE7206ABDE8F087704770477047EB
:100360002DE9FF4F0C461E464FF0FF378BB0D2E908
:100370000001DDF860800A908A46C1F30A5505B98C
:100380003D46002108464FF00000BAF1000F00F48E
:10039000400005DA00EB80004FF4400101EA500014
:1003A0004FEA9059B9F1010F00DDB9460A9850EAB9
:1003B0004A000ED044F61050A5F2FF3545432F14E5
:1003C000B8F1000F1ED07542291E1EDDC9F10002D2
:1003D0001CE0B8F1010F4FF0000001D0302103E024
:1003E000F24305E02154401CB042FBDB30460022C2
:1003F000002121540B99C1F80880C1E900200FB0F9
:10040000BDE8F08FBD1B6D1CDEE74A4600DA69428D
:1004100006A800F05DFA06AB93E8070003AB83E89B
:10042000070050460A9902F0E1F98DE80700A0F5AF
:1004300000501F3800900398002D0ADD42F21F0182
:100440004A460844002303A90390684602F04AFC88
:1004500009E0A0F500504A461F38002303A9039085
:10046000684602F054FC8DE807000004000C03D03D
:100470004FF0FF30410800E01046B8F1000F03D004
:100480000022009215461EE0751E05D400F09AF970
:10049000303262556D1EF9D5B3460122084302D0B1
:1004A00000227F1C04E02078302801D100227F1E2A
:1004B000002A099784D01DE0112D07DA00F082F997
:1004C000303262556D1C50EA0102F5D1084302D06A
:1004D0000098C8B10EE00021681E05E0235C625C54
:1004E00063542254401E491C8142F7DBAB46A81BD3
:1004F000401E0990002004F80B000B98099AC0F8E0
:100500000880C0E9002B7AE711264FF0000857E772
:100510002DE9F04F88460446D21D22F0070191B024
:10052000D1E90001CDE90A0102F028FD02460B984D
:10053000C00F01D02D2007E02068810701D52B20B6
:1005400002E0202101EAC000032A099001D0072A15
:1005500005DB03464146204600F07AF90BE120789E
:10056000800601D5E06900E00620B8F1650F8146FC
:1005700006D0B8F1660F18D0B8F1670F70D131E02E
:100580000020B9F1110F009001DB112301E009F106
:1005900001030AAA01A90CA8FFF7E2FEDDE90C702D
:1005A000002609F10105834647E001204B460090F3
:1005B0004FF000470AAA01A90CA8FFF7D1FEDDE918
:1005C0000DB00C995D46002610B909F101000D1817
:1005D000B9EB050003D4C0F1FF3609F10105A5EB25
:1005E00009002BE0B9F1010F01DA4FF001090020F9
:1005F000B9F1110F0090484601DD112300E00346D8
:100600000AAA01A90CA8FFF7ABFEDDE90C704D4664
:1006100000268346207800070AD4AB4500DA5D4601
:1006200001A8012D04DD411911F8011C302907D062
:100630004F4502DA17F1040F04DA012082460FE079
:100640006D1EEEE7002F02DCED1B3E4403E0781C3C
:10065000A84200DD7D1CB81B00F1010A4FF00047E5
:100660002078000703D4AA4501DB4FF0FF3A0021B0
:10067000B7F1004F0DF143088DF8431024D002204C
:100680002B23002F01DA7F422D230A21021EA0F125
:10069000010000DC5FB197FBF1FC97FBF1F201FB7D
:1006A0001C7C17460CF1300C08F801CDEEE7A8F1E0
:1006B000010003702188090501D5452100E065216D
:1006C000A0F1010800F8011C09980FA9A1EB080787
:1006D000FF1D00B10120411901EBEA70A169384406
:1006E000081A401EA0612078C00602D42046AFF34D
:1006F0000080099828B1D4E901219047206A401C64
:1007000020622078C00622D52046AFF300801EE08C
:10071000002E04DBB34502DD01A8805D00E030203F
:10072000D4E901219047206A401C2062761CAAF17E
:1007300001005FEA000A0AD100F040F8C0680168D1
:10074000405CD4E901219047206A401C2062281EA9
:10075000A5F10105DCDC07E0D4E9012118F8010B63
:100760009047206A401C2062381EA7F10107F3DC85
:100770002046AFF30080032011B041E601694A1C16
:1007800002610878704700B58FB0CDE901310021D2
:10079000059105497944CDE9031011466846FFF7F4
:1007A00055FD0FB000BD0000E5FFFFFFD1E90023BC
:1007B0009A4202D2531C0B60107070470048704779
:1007C0003000002030B5B0F10A0271F100034FEAA9
:1007D000900E4EEA817EB0EB0E0061EB91014FEA84
:1007E000101E4EEA017E10EB0E0041EB11114FEA94
:1007F000102E4EEA016E10EB0E0041EB11214FEA74
:10080000104E4EEA014E10EB0E0041EB1141401824
:1008100041F100014FEAD00040EA41704FEAD101B6
:100820004FEA810444EA907410EB800544EB010424
:100830006D1944EB0404521BA3414FF0000348BF61
:100840000A3200D530BD401C41F1000130BD00002E
:100850002DE9F0411F46044603260168072A01F4EA
:10086000006004DB08B116A505E016A503E008B199
:1008700015A500E015A521F010002060A069C01E9C
:10088000A0610FB1401EA0612046AFF300804FB1C0
:10089000D4E9012138469047206A401C2062C01CE0
:1008A000206206E0206AFAE7D4E9012115F8010B7D
:1008B0009047761EF8D22046AFF30080BDE8F08165
:1008C0004E414E006E616E00494E4600696E6600F4
:1008D0002DE9F047814616468AB0354878440DC860
:1008E0008DE80D0032487844801C03AC0DC884E8C4
:1008F0000D0041F69B300844372190FBF1F290FB4C
:10090000F1F5A5F1800501FB12041B3C02D5644200
:10091000012000E00020DFF898A080460027FA447C
:10092000AAF1BE0A0EE0E0070AD03246684607EB9D
:10093000470101230AEB810102F0E9F98DE8070084
:1009400064107F1C002CEED1194F7F44AE3F19E09C
:10095000E80715D007EB04100DF1180A90E80E0017
:100960008AE80E00C068F04201D19819089032461A
:10097000012306A903A802F0CAF903AB83E8070024
:100980006D10641C002DE3D14FF00103324669461F
:10099000B8F1000F03A802D002F0A4F901E002F0C0
:1009A000B6F9C9E90001C9F808200AB0BDE8F08726
:1009B000242A000000487047100000207546FFF709
:1009C000F9FFAE4605006946534620F0070085460C
:1009D00018B020B5FFF708FCBDE820404FF0000636
:1009E0004FF000074FF000084FF0000BAC46ACE8AA
:1009F000C009ACE8C009ACE8C009ACE8C00921F006
:100A000007018D46704710B50446AFF300802046BD
:100A1000BDE81040FFF7D4BB4FF0013C50F8042B69
:100A200051F8043B9A4221D1A2EB0C03934313EA01
:100A3000CC1317D150F8042B51F8043B9A4215D12E
:100A4000A2EB0C03934313EACC130BD150F8042B05
:100A500051F8043B9A4209D1A2EB0C03934313EAE9
:100A6000CC13DBD04FF00000704700BFD01A01BAA2
:100A7000B1FA81F101F0180122FA01F0CB40DBB2AA
:100A8000C0B2C01AC1F120012CFA01F3D11A91436E
:100A900011EAC311E6D1704701491820ABBEFEE749
:100AA0002600020070470000B0B582B0012040F27D
:100AB000D4048DF807001020C2F200048DF806005F
:100AC00064250DF10702204646210123009500F020
:100AD0000DFC0A2000F036F80DF1060220464621F2
:100AE0000123009500F002FCB42000F02BF802B0C6
:100AF000B0BD000080B582B040F2D4004FF0640C6D
:100B0000C2F200000DF1060246210223CDF800C01A
:100B100000F0ECF9BDF8060040BA02F055FB49F6CA
:100B20009A11C3F6997102F08DFA02B080BD0000EF
:100B3000FEE7000070470000EFF3108072B600BFC0
:100B4000FEE70000B0B5044600F018F9054640F293
:100B50000000C2F200000078611C18BF044400BF0E
:100B600000F00CF9401BA042FAD3B0BD2DE9F04FC4
:100B700082B00E68002E00F0FD8041F20042C4F207
:100B80000102042340F2004E904208BF03234FF6B7
:100B9000FF7CC4F2010E009300240123C1F2100C6B
:100BA0004FF0000A4FF000094BE000BF41F2000295
:100BB000C4F20102009F904208BF022704F00C0318
:100BC0000F229A402BEA020207FA03F34FEA9A0532
:100BD0001A4346F825204E6840F20C45F202DEF832
:100BE000082054BF22EA080242EA0802C4F20105C2
:100BF000CEF808202A68B30254BF22EA080242EA6B
:100C000008022A60B303DEF8042054BF22EA080277
:100C100042EA0802F303CEF80420DEF800204FF089
:100C2000010354BF22EA080242EA0802CEF800207B
:100C30000E680AF1010A36FA0AF204F1040400F01F
:100C4000998003FA0AFB16EA0B08F1D04E68664554
:100C500012DC122E56D8DFE806F0350B4D495555FB
:100C6000555555555555555555555545510000BF88
:100C7000D1F80C9046E000BF4FF6FF72C1F221029E
:100C800096420FDC0022C1F2110296421AD00022D5
:100C9000C1F21202964215D00022C1F22102964200
:100CA00010D02FE00022C1F2220296420AD0002288
:100CB000C1F23102964205D00022C1F232029642C0
:100CC00020D100BF8A684AB1012A14BFC0F814B00D
:100CD000C0F810B04FF0080914E000BF4FF004094D
:100CE00010E000BFCA6802F104090BE04FF00009F0
:100CF00008E000BFCA6802F1080903E0CA6802F10F
:100D00000C0900BF02462646B8F5807F24BF043296
:100D1000203E17680F25B54027EA050509FA06F6B3
:100D200035431560CA79D2067FF582AF41F21803C8
:100D3000C4F202031A68AEF57E7642F001021A6030
:100D40001A6802F001020192019A2AF0030256F891
:100D500002B040F60002C4F20102904208D040F610
:100D60000042C4F2010290427FF420AF012725E740
:100D7000002723E702B0BDE8F08F000040F2281002
:100D8000C2F2000000687047002804BF01207047CD
:100D9000F0B581B0044690F83D0028B9002084F8F1
:100DA0003C00204600F090FB242084F83D002068A1
:100DB000016821F001010160016841F40041016016
:100DC000016821F40041016000F068FD636848F2A9
:100DD000A16CC0F2010C40F60011C0F23D01634568
:100DE0003CBF48F28041C0F21E01884202D201207D
:100DF00001B0F0BD4DF68361C4F21B31A0FB0112BE
:100E00002168970CD1F804E04FF496762EF03F0558
:100E100045EA92454D60774348F638160D6AC0F2B0
:100E20004106A7FB067625F03F07634538BF960CC1
:100E3000721C3A430A62CA6948F2A0664CF6FF7710
:100E4000C0F20106B34222EA07020BD801385B0068
:100E5000B0FBF3F001306FF31F30042898BF04207B
:100E60001BE000BFA768013857B119277B43B0FBCF
:100E7000F3F001306FF31F3070B100F5804007E0F0
:100E800003EB4303B0FBF3F001306FF31F3018B1F5
:100E900000F5004001E000BF01201043C861086870
:100EA000D4E9072320F0C000104318430860886885
:100EB00048F2FF3204F10C0790438CCF18431043E3
:100EC000A6698860C86820F0FF0038433043C860D6
:100ED000086840F00100086000202021206484F8A8
:100EE0003D10206384F83E0001B0F0BD2DE9F047CD
:100EF00084B0044600201F46164689460290FFF73C
:100F00003DFF94F83D10202924D10546206800BFFC
:100F1000816989071AD5FFF731FF411B20681A291B
:100F2000F6D381698907F3D500202021206384F856
:100F30003D1084F83E00216C41F02001216484F8CA
:100F40003C00022004B0BDE8F08700BF94F83C10DC
:100F5000012903D1022004B0BDE8F087012184F803
:100F60003C100168C90703D1016841F0010101602B
:100F70000168DDF8308021F400610160222184F8ED
:100F80003D10102184F83E100021216466626785BF
:100F9000618D0227C0F201072185A7F10211E162EC
:100FA000E16A026811F5803F42F48062026018BF76
:100FB00001293DD1016841F48071016020464FF064
:100FC000011100224346009500F0F2FE50B1206866
:100FD0000068C00544BF4FF400702064012004B0D5
:100FE000BDE8F0872069B0F5804F27D149F00100B6
:100FF000C0B2216842460861204639462B4600F0BF
:10100000BDFF0028EAD1208D022861D0012849D0F7
:10101000002840F07380002003902068416903910C
:10102000816903910399016841F40071016071E0E5
:101030000829BFD0216B1129BCD0BFE7062000EAE8
:10104000D916206806F1F0010161B91D204642461B
:101050002B4600F093FF0028C0D120685FFA89F189
:1010600001612046394642462B4600F087FF0028A2
:10107000B4D10020039020680022416943460391C7
:10108000816903910399016841F4807101602046F0
:101090004FF00111009500F08BFE002897D146F02B
:1010A000F100A6E72068016821F480610160EFF398
:1010B000108072B600200390206841690391816915
:1010C00003910399016841F40071016062B621E067
:1010D0002068016841F400610160EFF3108072B68E
:1010E000002003902068416903918169039103996D
:1010F000016821F48061016062B60BE0206801683C
:1011000041F480610160002103914169039180698C
:1011100003900398208D002800F0CA8040F208094F
:101120004BF2895A0237C2F20009C1F2F84A23266B
:101130000EE000BF10690870606A218D01306062A6
:10114000481E2085618D01396185010400F0B08061
:1011500080B203280CD802282CD001284AD120467E
:1011600041462A4600F076FF002800F09C8035E7D3
:10117000204641462A4600F06DFF00287FF42EAF3E
:101180002068616A00690870606A2268411C208DCD
:10119000616201382085638D013B638553695B077C
:1011A000D3D580B20328C5D1106820F480601060C8
:1011B000C0E700BF2046394600224346009500F0B4
:1011C000F7FD00287FF40AAFEFF3108072B62068B5
:1011D000616A026842F40072026000690870606A25
:1011E000218D01306062481E2085608D0138608548
:1011F00062B658E02046394600224346009500F08A
:10120000D7FD00287FF4EAAE2068016821F48061F0
:101210000160EFF3108072B62068616A006908709F
:10122000606A218D0130013960622185618D01394B
:101230006185D9F80010C908A1FB0A12110A71438F
:101240000291029901390291029900293CD021684A
:101250004A69520717D4029A013A0292029A9AB343
:101260004A6952070FD4029A013A0292029A5AB37B
:101270004A69520707D4029A013A0292029A1AB3B3
:101280004A695207DDD50A6842F400720A600969AA
:101290000170606A218D01306062481E2085608D7A
:1012A0000138608562B62068616A006943E700BF63
:1012B000202084F83D00002084F83E0084F83C00A3
:1012C00004B0BDE8F08700BF00202021206384F82F
:1012D0003D1084F83E00216C41F02001216462B68B
:1012E00084F83C00012004B0BDE8F0872DE9F0430C
:1012F00083B01E46174689460446FFF73FFD94F823
:101300003D10202924D10546206800BF8169890746
:101310001AD5FFF733FD411B20681A29F6D38169DE
:101320008907F3D500202021206384F83D1084F83C
:101330003E00216C41F02001216484F83C00022031
:1013400003B0BDE8F08300BF94F83C10012903D13D
:10135000022003B0BDE8F083012184F83C1001684D
:10136000C90703D1016841F001010160016840F241
:10137000020821F400610160212184F83D10102150
:1013800084F83E100021216467626685618DC0F299
:1013900001082185A8F10211E162E16A0A9E11F5B6
:1013A000803F18BF01291DD1016841F4807101609F
:1013B00020464FF0011100223346009500F0F8FC62
:1013C00050B120680068C00544BF4FF4007020642D
:1013D000012003B0BDE8F0832069B0F5804F07D14C
:1013E000FE2015E00829DFD0216B1229DCD0DFE7D1
:1013F000062000EAD9102168F030086108F10601E2
:10140000204632462B4600F0B9FD0028E0D1FF20EF
:10141000216800EA090008612046414632462B4611
:1014200000F0ACFD0028D3D1002002902068416973
:10143000029180690290029806E000BF2046314682
:101440002A4600F057FC18BB208D68B32046314671
:101450002A4600F047FED8B9606A2168024612F8B1
:10146000013B0B616262628D013A6285228D531EDF
:1014700023854F697F07E1D51B04DFD04378023015
:101480000B616062608D01386085901E2085D5E714
:10149000206C04289CD12068016841F4007101602F
:1014A000012003B0BDE8F0832068016841F40071B9
:1014B0000160202084F83D00002084F83E0084F87C
:1014C0003C0003B0BDE8F08310B586B0006845F677
:1014D0000001C4F2000188424FF00001CDE904117F
:1014E000CDE9021132D045F20041C4F20001884238
:1014F00050D141F21804C4F20204206802A940F05D
:1015000008002060206800F00800019001984FF466
:1015100040700290122003900320059040F6004096
:10152000C4F20100FFF722FB0420C4F201000168AD
:1015300041F0E06141F002010160606840F4001098
:101540006060606800F4001022E000BF41F21804FF
:10155000C4F20204206802A940F00800206020685C
:1015600000F00800019001984FF4406002901220B2
:1015700003900320059040F60040C4F20100FFF7FD
:10158000F5FA606840F480006060606800F48000F4
:101590000190019806B010BD40F2000040F2281101
:1015A000C2F20000C2F2000100780A68104408602C
:1015B0007047000080B542F20000C4F202000168EA
:1015C00041F010010160032000F07AF80F2000F0D4
:1015D00005F800F027F8002080BD000070B540F24B
:1015E0000006C2F2000640F208013278C2F20001A1
:1015F0004FF47A730968B3FBF2F20446B1FBF2F1DF
:10160000084600F05FFB0F2C4FF0010508D838B9F1
:101610004FF0FF3021460022002500F025F87460CD
:10162000284670BD82B041F21800C4F20200016881
:10163000022241F001010160016801F00101019104
:101640000199416841F080514160406800F080504C
:10165000009000980420C4F20100016862F31A614E
:10166000016002B07047000010B54EF60C5CCEF27F
:10167000000CDCF80030C3F3022E8EF00704042CBB
:1016800028BF0424BEF103034FF0FF3E0EFA04F41A
:1016900038BF0023A14399400EFA03F39A43114344
:1016A00000F00F0200F160430901043A03F56443BE
:1016B0006244002848BF02F10C03197010BD0000FD
:1016C0004EF60C51CEF200010A684FF6FF031A40A5
:1016D00060F30A2242F0806040F0FD7008607047BD
:1016E000002804BF012070472DE9F04381B042F289
:1016F0000008C4F202080446D8F800000D4600F0C5
:10170000070081420CD9D8F8000020F007002843D8
:10171000C8F80000D8F8000000F00700A8426CD11B
:10172000206841F204098107C4F2020917D5410774
:1017300005D5D9F8001041F4E061C9F8001001079F
:1017400005D5D9F8001041F46051C9F80010D9F856
:101750000010A26821F0F0011143C9F80010C00781
:1017600042D1D8F8000000F0070085420CD2D8F82A
:10177000000020F007002843C8F80000D8F8000057
:1017800000F00700A84238D12068410707D5D9F8F2
:101790000010E26821F4E0611143C9F8001000076D
:1017A00008D5D9F80000216920F4605040EAC10052
:1017B000C9F80000D9F8002002F00C00082841F216
:1017C0000020C0F27A004DD143F27053C2F383413E
:1017D000C0F60003595CD20338D440F60010C0F2C2
:1017E0003D0048433EE000BF606859F8041C0228F1
:1017F00008D0012826D1890306D4012001B0BDE814
:10180000F08300BF8901F8D5D9F8001021F0030159
:101810000843C9F80000FFF7B1FA064641F28837DD
:10182000D9F80000616800F00C00B0EB810F98D08F
:10183000FFF7A4FA801BB842F2D9032001B0BDE83B
:10184000F08300BF8907D8D5DEE700BFD9F80020B4
:1018500043F26E53C2F34042C0F600039A5C484321
:10186000B0FBF2F0D9F8001043F21C32C1F30311BF
:10187000C0F60002515C40F2080220FA01F140F289
:101880000400C2F200000068C2F200021160FFF71B
:10189000A5FE002001B0BDE8F083000040F2080082
:1018A00041F20401C2F20000C4F2020100680968BA
:1018B00043F22C32C1F30221C0F60002515CC84051
:1018C00070470000002804BF012070472DE9F04157
:1018D00082B00446007841F20006C007C4F2020656
:1018E0000CD0706800F00C00042840F08180306853
:1018F000800303D56068002800F0468120788007C7
:101900001BD5706810F00C0F09D0706800F00C0047
:10191000082840F087807068C00300F18380306839
:10192000800703D52069012840F02E813068616965
:1019300020F0F80040EAC10030602078000713D49E
:10194000207840072CD4E569002D00F018817068DC
:1019500000F00C00082840F0A780012D40F0048121
:10196000012002B0BDE8F081A069002800F0848069
:101970000020C4F242200121C0F88014FFF7FEF9D4
:10198000054600BF706A800700F1B280FFF7F6F9E4
:10199000401B0228F6D9032002B0BDE8F08100BF49
:1019A000F0695FEAC00808D4F06940F08050F06147
:1019B000F06900F080500090009847F20007C4F2F0
:1019C00000073868C00549D4386840F48070386032
:1019D000FFF7D4F9054600BF3868C0053ED4FFF7CD
:1019E000CDF9401B6428F7D9032002B0BDE8F0818F
:1019F000706800F00C00082803D17068C0033FF540
:101A000076AF61683068002900F00C81B1F5A02F35
:101A100000F00081B1F5803F40F01A8140F4803041
:101A20001CE100BF2069002840F20000C4F24220FF
:101A300000F0888001210160FFF7A0F9054600BF92
:101A4000306880073FF572AFFFF798F9401B022816
:101A5000F6D9032002B0BDE8F08100BFE168306A2A
:101A6000002900F09D80052900F09280012940F0B6
:101A7000AF8040F00100B1E00020C4F2422000211C
:101A8000C0F88014FFF77AF9054600BF706A800736
:101A90007FF556AFFFF772F9401B0228F6D90320F5
:101AA00002B0BDE8F08100BF0027C4F24227002049
:101AB0003866FFF763F9022D05460DD130688001C5
:101AC00040F1DE80FFF75AF9401B02284FF0030077
:101AD000F4D902B0BDE8F081306880014FD5FFF73E
:101AE0004DF9401B02284FF00300F5D9F1E700BF84
:101AF00040F20800C2F20000006844F6D351C1F27F
:101B00006201A0FB0101480A019000BF00BF0198DB
:101B1000411E002801913FF413AF00BF0198411E00
:101B2000002801913FF40CAF00BF0198411E00282E
:101B300001913FF405AF00BF0198411E00280191BB
:101B4000E4D1FDE600210160FFF718F9054600BF6A
:101B5000306880077FF5F1AEFFF710F9401B0228CF
:101B60004FF00300F4D9B4E77068216A00F48032C2
:101B70008A4209D1616A00F47010884204D10020C1
:101B800002B0BDE8F08100BF012002B0BDE8F081E5
:101B900040F004003062306A40F001001EE000BFF7
:101BA00020F001003062306A20F004003062FFF75C
:101BB000E5F8054641F28837306A800720D5FFF7FF
:101BC000DDF8401BB8424FF00300F5D981E700BFB4
:101BD00020F001003062306A20F004003062FFF72C
:101BE000CDF8054641F28837306A800708D4FFF700
:101BF000C5F8401BB842F7D9032002B0BDE8F08118
:101C0000B8F1000F3FF59FAEF06920F08050F06111
:101C100099E600BF40F480203060306840F48030A6
:101C20001CE000BF20F480303060306820F4802059
:101C30003060FFF7A3F80546306880037FF55EAE9D
:101C4000FFF79CF8401B64284FF00300F4D940E7ED
:101C500020F480303060306820F480203060FFF75E
:101C60008DF80546306880033FF548AEFFF786F8EB
:101C7000401B6428F6D9032002B0BDE8F08100BF04
:101C8000206AB0F5803F05D17168A26821F4003167
:101C9000114371607168626A21F474111143084341
:101CA000706001203866FFF769F8044630688001EB
:101CB0003FF565AFFFF762F8001B02284FF0030005
:101CC000F4D906E7411E0020B0EB116F1CBF0120C4
:101CD00070474EF21002CEF2000251604EF62351D0
:101CE000CEF20001F0230B70072190601160704765
:101CF000FEE7000070B50368044653F8140F400770
:101D000011D40E46481C29D086BB00BF1868400578
:101D100027D4FFF733F8236853F8140F400737D55B
:101D200018684007F2D5002070BD00BF1868400752
:101D3000F9D41868400514D418684007F3D418681B
:101D400040050ED418684007EDD41868400508D443
:101D5000186840074FF0000048BF70BD1868400584
:101D6000E4D56FF480601860042012E0154603E0AB
:101D700053F8140F4007D6D418684005F1D4FEF785
:101D8000FDFF401B2368B042F2D958694007EFD4E9
:101D9000202000212022216384F83D2084F83E1079
:101DA000226C10432064012084F83C1070BD0000B8
:101DB0002DE9F041054600681E46144601F47F02F5
:101DC00001338FB242D0DDF81880B2F5803F40F089
:101DD000878040693840C01BB0FA80F040098442D7
:101DE00040F0C8804EB924E040693840C01BB0FACA
:101DF00080F04009844240F0BD80FEF7BFFFA0EBB9
:101E000008012868B142EFD941693940C91BB1FACC
:101E100081F149098C42E7D19BE000BF406938401D
:101E2000C01BB0FA80F0400984424FF0000040F03F
:101E3000A280FEF7A3FF286841693940C91BB1FAA7
:101E400081F149098C42E9D183E000BFB2F5803FBE
:101E500024D100BF41693940C91BB1FA81F1490958
:101E60008C4240F0878041693940C91BB1FA81F149
:101E700049098C4240F07E8041693940C91BB1FA62
:101E800081F149098C4275D141693940C91BB1FAC8
:101E900081F149098C42DDD06CE000BF8169394095
:101EA000C91BB1FA81F149098C4263D1816939407A
:101EB000C91BB1FA81F149098C425BD18169394072
:101EC000C91BB1FA81F149098C4253D1816939406A
:101ED000C91BB1FA81F149098C42DFD04AE000BF49
:101EE00080693840C01BB0FA80F04009844241D17B
:101EF00046B923E080693840C01BB0FA80F0400941
:101F0000844237D1FEF73AFFA0EB08012868B142BE
:101F1000F0D981693940C91BB1FA81F149098C4274
:101F2000E8D116E080693840C01BB0FA80F0400963
:101F300084424FF0000018BFBDE8F081FEF71EFF9D
:101F4000286881693940C91BB1FA81F149098C427D
:101F5000E8D100202021286385F83D1085F83E0057
:101F6000296C41F02001296485F83C000120BDE87E
:101F7000F08100BF0020BDE8F0810000F0B581B025
:101F8000044600681D4643698FB203EA0701B9425F
:101F900002D1002001B0F0BD4169164601323CD0AB
:101FA000490512D47EB300BFFEF7E8FE411B20684E
:101FB000B14203D941693940B9422BD14169394015
:101FC000B942E6D041694905EED5016841F4007196
:101FD00001606FF4806141610420002120222163AF
:101FE00084F83D2084F83E10226C1043206484F86D
:101FF0003C10012001B0F0BD41693940B942C8D060
:1020000041694905E1D4FEF7B9FE206841693940CC
:10201000B942F1D02020E0E741694905D5D44169B2
:102020003940B942B5D041694905CED441693940FA
:10203000B942AED041694905C7D441693940B94276
:10204000A7D041694905C0D441693940B942E3D1BB
:102050009FE7000070B504460068154650F8143F2D
:102060005A063DD40E4629B926E000BF50F8141F89
:10207000490635D40168C90621D4FEF77FFE411B0D
:102080002068B142F2D941694906EFD400202021ED
:10209000206384F83D1084F83E00206C40F020005E
:1020A00018E000BFFEF76AFE206850F8141F4906CA
:1020B000ECD50168490613D40168C906F2D56FF062
:1020C0001001016000202021206384F83D1084F875
:1020D0003E00206C2064002084F83C00012070BD8C
:1020E000002070BD70B50368044653F8140F000655
:1020F00011D40E46481C29D086BB00BF1868400585
:1021000027D4FEF73BFE236853F8140F000637D59B
:1021100018680006F2D5002070BD00BF18680006E0
:10212000F9D41868400514D418680006F3D4186868
:1021300040050ED418680006EDD41868400508D490
:10214000186800064FF0000048BF70BD18684005D1
:10215000E4D56FF480601860042012E0154603E0B7
:1021600053F8140F0006D6D418684005F1D4FEF7D2
:1021700005FE401B2368B042F2D958690006EFD42F
:10218000202000212022216384F83D2084F83E1085
:10219000226C10432064012084F83C1070BD0000C4
:1021A00082B041F21800C4F20200016841F0080157
:1021B0000160016801F0080101910199016841F095
:1021C00004010160006800F004000090009802B073
:1021D0007047000080B540F2800045F20041C2F235
:1021E0000000C4F2000148F2A06200234FF4804CCA
:1021F000C0F2010280E80E00C0E9033CC0E90533EB
:10220000C0E90733FEF7C0FD002808BF80BDBDE868
:102210008040FEF791BC000080B540F2D40045F646
:102220000001C2F20000C4F2000148F2A0620023E3
:102230004FF4804CC0F2010280E80E00C0E9033C7C
:10224000C0E90533C0E90733FEF79EFD002808BF4B
:1022500080BDBDE88040FEF76FBC0000FEE70000D7
:10226000FEE70000704700002DE9F04F83B040F218
:10227000800400260A27C2F200040DF1080A4FF07C
:1022800040080DF10A054FF0000900BF49F0B00009
:102290008DF805002046782101AA02238DF80460FC
:1022A0000097FFF723F8204678210DF1060202235C
:1022B000ADF806600097FFF719F84FF48050ADF8BD
:1022C000080020467821524602230097FFF70EF8B7
:1022D0004FF0000B204678212A460223ADF80A80F1
:1022E0000097FFF703F80BF101004FFA80FBBBF1F9
:1022F000FF3FEFDCB9F1070F09F10109C6D303B0C5
:10230000BDE8F08F2DE9F04182B06420FEF71AFCA1
:1023100040F280044FF42E40C2F20004ADF80600F3
:102320000A250DF106022046782102230095FEF7CA
:10233000DDFF4FF400580DF10602204678210223FC
:10234000ADF806800095FEF7D1FF4FF480560DF1F1
:102350000602204678210223ADF806600095FEF7BC
:10236000C5FF4FF43040ADF806000DF106022046DF
:10237000782102230095FEF7B9FF4FF44840ADF8ED
:1023800006000DF106022046782102230095FEF793
:10239000ADFF00270DF10602204678210223ADF89B
:1023A00006700095FEF7A2FF0DF106022046782187
:1023B0000223ADF806600095FEF798FF4FF48040C9
:1023C000ADF806000DF106022046782102230095A3
:1023D000FEF78CFF4FF40140ADF806000DF1060248
:1023E0002046782102230095FEF780FF4FF4FE403F
:1023F000ADF806000DF10602204678210223009573
:10240000FEF774FF4FF42140ADF806000DF106020F
:102410002046782102230095FEF768FF4FF42640FE
:10242000ADF806000DF10602204678210223009542
:10243000FEF75CFF4FF42840ADF806000DF10602F0
:102440002046782102230095FEF750FF4FF47C5080
:10245000ADF806000DF10602204678210223009512
:10246000FEF744FF4FF42440ADF806000DF10602DC
:102470002046782102230095FEF738FF4FF45340A1
:10248000ADF806000DF106022046782102230095E2
:10249000FEF72CFF0DF10602204678210223ADF84D
:1024A00006700095FEF722FF4FF45540ADF8060088
:1024B0000DF106022046782102230095FEF716FF53
:1024C0004FF47040ADF806000DF106022046782169
:1024D00002230095FEF70AFF4FF45940ADF80600BD
:1024E0000DF106022046782102230095FEF7FEFE3C
:1024F0004FF40850ADF806000DF106022046782191
:1025000002230095FEF7F2FE4FF45A40ADF80600A4
:102510000DF106022046782102230095FEF7E6FE23
:102520004FF49050ADF806000DF1060220467821D8
:1025300002230095FEF7DAFE4FF45B40ADF806008B
:102540000DF106022046782102230095FEF7CEFE0B
:102550000DF10602204678210223ADF80680009591
:10256000FEF7C4FE4FF40D40ADF806000DF1060273
:102570002046782102230095FEF7B8FE4FF4A050C4
:10258000ADF806000DF106022046782102230095E1
:10259000FEF7ACFE4FF42F40ADF806000DF1060239
:1025A0002046782102230095FEF7A0FEFFF75CFE8F
:1025B00002B0BDE8F08100002DE9F04F83B0054680
:1025C00050B240F2800AA2F120062028A1F150006A
:1025D000C2F2000AB8BF002600278DF805004FF0B0
:1025E0000A0801AA5046782102238DF80470CDF81C
:1025F0000080FEF77BFE05F00F008DF807000DF15F
:1026000006025046782102238DF80670CDF800802E
:10261000FEF76CFE280910308DF8090002AA50461A
:10262000782102238DF80870CDF80080FEF75EFE59
:10263000F0B243F2343100EB4000C0F6000101EB90
:10264000400711F810000DF10A0B40268DF80B0021
:10265000504678215A4602238DF80A60CDF8008052
:10266000FEF744FE7878BC78FD7897F804908DF8F2
:102670000B00504678215A4602238DF80A60CDF8A7
:102680000080FEF733FE504678215A4602238DF82B
:102690000A608DF80B40CDF80080FEF727FE50460B
:1026A00078215A4602238DF80A608DF80B50CDF838
:1026B0000080FEF71BFE504678215A4602238DF813
:1026C0000A608DF80B90CDF80080FEF70FFE787948
:1026D00078218DF80B0050465A4602238DF80A6087
:1026E000CDF80080FEF702FE03B0BDE8F08F0000D9
:1026F0001378002B08BF704770B50C460546561E70
:10270000E8B2DAB22146FFF757FFB3780635002B5F
:1027100006F10106F4D1BDE8704070477047000033
:10272000FEF73ABF70470000FEE7000092B0FEF7E8
:1027300041FF00240120CDE90D44CDE90B440C906C
:1027400010200D904FF460100225119008A8CDE9DB
:1027500009440895CDE90F54FFF7B4F820B1EFF321
:10276000108072B6FEE700BF0F20CDE903054FF4DD
:102770008060CDE9060403A802210594FEF7B0FFAE
:1027800020B1EFF3108072B6FEE700BFFFF708FD3F
:10279000FFF720FDFFF740FDFFF7B4FDFEF784F9DA
:1027A00040F27004C2F200040DA600BFFEF7A2F9C9
:1027B00000F01CFC03460D46204610213246CDE9B0
:1027C0000035FDF723FDFFF74FFD002000212246D5
:1027D000FFF78EFF4FF4FA70FEF7B4F9E6E700BF9B
:1027E0004C75783A20252E31660000005FEA400CD7
:1027F00008BF91F0000F4FEA8C234FEAC12243EA51
:1028000051514FEA1C5018BF00F5F0404FEA30001C
:1028100018BF41F000415FEA6C5C00F02980BCF118
:10282000FF3F08BF40F080407047130C06BF120402
:102830004FF0100C4FF0000C130E04BF12020CF1FD
:10284000080C130F04BF12010CF1040C930F04BF0A
:1028500092000CF1020CD30F04BF52000CF1010CDA
:1028600011464FF00002A0F11F00A0EB0C007047D2
:1028700011F0004F08BF704731F000413FF4D5AF71
:102880000B0C06BF09044FF0100C4FF0000C0B0EA0
:1028900004BF09020CF1080C0B0F04BF09010CF175
:1028A000040C8B0F04BF89000CF1020CCB0F04BF8A
:1028B00049000CF1010CCCF1200322FA03F341EAA8
:1028C000030102FA0CF2A0EB0C0000F101007047CA
:1028D00023F07F4720F07F4C80EA030000F00040A7
:1028E000ACEB070303F57C5303F1FF032DE98049AB
:1028F00009B44FEA144324EA03484FEA154B25EA8A
:102900000B4E0FF2042606EB13273E7803FB0667F7
:10291000C7F5000707FB06F64FEAD64606F10206A2
:102920004FEA543707FB066CCCF1005C4FEA1C47BA
:102930002CEA074C0CFB06F507FB06F404EB1546E6
:102940004FEA961649085FEA320234BF00204FF082
:1029500000404FEAD13706FB07FC4FEA1C4C0CFB4A
:102960000BF7D21B03FB0CF761EB07010CFB0EF717
:10297000B0EB074072EB17420CFB08F734BFA2EB39
:102980000742B2EB074261EB17414FEA0C444FEAB2
:10299000910706FB07FC4FEA1C4C0CFB0BF7B0EB56
:1029A000C74072EB573203FB0CF734BFA2EBC742B0
:1029B000B2EBC74261EB57310CFB0EF7B0EBC7002F
:1029C00072EB57720CFB08F734BFA2EBC702B2EBF5
:1029D000C70261EB57714FEA816141EA92114FEAF8
:1029E000826242EA90124FEA806004EBCC04039FBB
:1029F0004FEAD13706FB07FC4FEA1C4C0CFB0BF7E8
:102A0000D21B03FB0CF761EB07010CFB0EF7B0EBDD
:102A1000074072EB17420CFB08F734BFA2EB0742EA
:102A2000B2EB074261EB17414FEA8C5504EB9C2453
:102A30004FEA910706FB07FC4FEA1C4C0CFB0BF717
:102A4000B0EBC74072EB573203FB0CF734BFA2EB7D
:102A5000C742B2EBC74261EB57310CFB0EF7B0EB4C
:102A6000C70072EB57720CFB08F734BFA2EBC7022A
:102A7000B2EBC70261EB57714FEA816141EA9211F3
:102A80004FEA826242EA90124FEA806015EB4C25D1
:102A900044F100044FEAD13706FB07FC4FEA1C4C17
:102AA0000CFB0BF7D21B03FB0CF761EB07010CFBD4
:102AB0000EF7B0EB074072EB17420CFB08F734BF80
:102AC000A2EB0742B2EB074261EB17414FEA8131BB
:102AD00041EA92414FEA823242EA90424FEA803024
:102AE0004FEA0C7615EB1C1544F1000448EA034349
:102AF0004EEA0B484FF0000EB2EB080C71EB0307E7
:102B000024BF624639464EEB0E0E4FF0000B001804
:102B1000524149414BEB0B0BB2EB080C71EB030735
:102B20007BF1000B24BF624639464EEB0E0E4FF090
:102B3000000B0018524149414BEB0B0BB2EB080C58
:102B400071EB03077BF1000B24BF624639464EEB65
:102B50000E0E51EA020718BF46F0010616EB0E767C
:102B600055F1000254F1000103D5BDE88901BDE82B
:102B70000088BDE88901BDE80048B619524141EB23
:102B80000101A3F10103704780807F7E7D7C7B7A09
:102B90007978777676757473727171706F6E6E6D09
:102BA0006C6C6B6A6A6968686766666564646363AF
:102BB00062616160605F5F5E5E5D5D5C5C5B5B5A35
:102BC0005A595958585757565655555554545353A2
:102BD00052525251515050504F4F4F4E4E4D4D4DFD
:102BE0004C4C4C4B4B4B4A4A4A4949494848484748
:102BF0004747474646464545454444444443434386
:102C000043424242424141419C46002B30D477002E
:102C10002BD04FEA37071CB503B44FF010004FF02C
:102C20001001BAF1000F06D0BCF1000FDCBF40F07C
:102C3000080040F008014FF000000FBCBDE8104054
:102C40000BF1010BBBF1010F08BF5FEA170722BFB1
:102C500012F1010211F101014FF0004143F10003B3
:102C600000F0004043EA00007047F9D35708D0E76E
:102C700046EA06464FEA164613F1400F1FDD13F1F0
:102C8000200FDFBF16430A46002120335B42BED02F
:102C9000C3F1200746EA06464FEA164602FA07F74E
:102CA00046EA070622FA03F2C3F1200701FA07F702
:102CB00042EA070221FA03F14FF00003A7E746EAD0
:102CC000020646EA06464FEA164646EA0106BCBF39
:102CD00046EA0646360C4FF000034FF000024FF074
:102CE000000194E72DE9804C70B49A46934691E830
:102CF000380007C831EA400C48BF34EA430C03D51A
:102D0000FFF7E6FDFFF780FFF0BCBDE8008C2DE982
:102D1000804C70B49A46934691E8380007C810F08A
:102D2000804F08BF13F0804F03D100F005F8FFF784
:102D30006BFFF0BCBDE8008C20F07F4723F07F4C98
:102D400080EA030000F0004007EB0C03A3F57C537E
:102D5000A3F1FE0392F0000F00F0B38095F0000F96
:102D600000F077802DE901494FEA114021EA00483F
:102D70004FEA144624EA064700FB06FC08FB06F669
:102D800007FB08F818EB06484CEB164C00FB07F75E
:102D900018EB07484CEB17404FEA124B22EA0B4E58
:102DA0004FEA154625EA06470BFB06FC0EFB06F626
:102DB00007FB0EFE1EEB064E4CEB164C0BFB07F70B
:102DC0001EEB074E4CEB174B18EB0B0840F10000C5
:102DD00018EB0E0B58EB000840F100008F1A4FF073
:102DE00000014FF000063CBFC943661B14BFB5EBA2
:102DF000040C00213CBFC943F61B4FEA174427EAE5
:102E000004454FEA1C472CEA074C04FB076205FB0C
:102E100007F70CFB05F616EB074642EB174204FBDF
:102E20000CFC16EB0C4642EB1C421BEB060658EB67
:102E3000020241414EEA8E0E46EA9E0601D5BDE8E9
:102E40000189B619524141EB0101A3F10103BDE82B
:102E500001894FEA144524EA05464FEA114721EA61
:102E6000074C05FB07F406FB07F70CFB06F111EB1B
:102E7000074144EB174405FB0CFC11EB0C4144EB00
:102E80001C444FEA124722EA074C05FB07F206FBF7
:102E900007F70CFB06F616EB074642EB174205FB5D
:102EA0000CFC16EB0C4642EB1C456A1854F1000171
:102EB00048BF7047B619524141EB0101A3F101032C
:102EC000704795F0000F37D04FEA114221EA0246D1
:102ED0004FEA144724EA074C02FB07F106FB07F709
:102EE0000CFB06F414EB074441EB174102FB0CFC0E
:102EF00014EB0C4441EB1C414FEA154725EA074C03
:102F000002FB07F506FB07F70CFB06F616EB074678
:102F100045EB174502FB0CFC16EB0C4645EB1C423F
:102F2000121951F1000148BF7047B619524141EBE7
:102F30000101A3F1010370474FEA144524EA054655
:102F40004FEA114721EA074C05FB07F106FB07F79B
:102F50000CFB06F212EB074241EB174105FB0CFCA0
:102F600012EB0C4251EB1C414FF0000648BF70477A
:102F7000921841EB0101A3F101037047490050EAA7
:102F8000C12018BF04204A0D18BF40F0010040F2D4
:102F9000FF72B2EB515F08BF40F00200012808BF8A
:102FA0000520704730380A2801D2012070470020E0
:102FB0007047000010B500290AD00878002807D013
:102FC00005487844FDF728FD002801D0002010BDF9
:102FD0000248784410BD0000DE050000D605000060
:102FE0000808A0F500114FEA3101704743004FEA8D
:102FF000D30C4FEA3C0C43401FBF40070CF160511B
:1030000013F0FE4F70471CF0006F03D10CF000412D
:10301000002070470CF0004343EA507040EACC00B7
:1030200010B500F0E4F800BF000000924FEA000184
:10303000FFF7D6BF4FF00041A1F500214FF000008F
:10304000704700004FF47F0C1CEAD0121EBF1CEA30
:10305000D11392EA0C0F93EA0C0F00F0858090EAEE
:10306000010F48BF42F4807240F4000C41F40000AC
:103070002CF07F4120F07F4000B5A2EB030281429B
:103080000FF2081CACEB504E9EF800E0C0F10000BF
:103090004FEA4E0E00FB0EFC38BF49004FEA2C1CD5
:1030A0000CFB0EF34FEACE1E0EEB635E4FEA112CC3
:1030B0000EFB0CFC4FEAC1214FEA1C5300FB03112D
:1030C00002F5FA024FEA112C0EFB0CFC4FEA01311B
:1030D0004FEADC4C00FB0C1142EB2242C14228BFFC
:1030E00009184CEB03335DF804EB10EB410143EBA3
:1030F000C250B2F57C0F38BF704729D512F0F00FDF
:103100001CBF00F1C04000F0004070470081828386
:103110008485868788898B8C8D8E8F9192939596E6
:1031200097999A9C9D9FA0A2A3A5A7A8AAACAEB070
:10313000B2B3B5B7B9BCBEC0C2C5C7C9CCCED1D475
:10314000D7D9DCDFE2E6E9ECF0F3F7FAFE000000A5
:103150004FEA400C0CF1807CBCF17E4F28BF7047D9
:10316000B0F1C04000F089B80CEAD11390EA010F29
:1031700048BF42F48072624538BF634507D213F4FA
:103180007F0F16D080EA010000F00040704710B5B4
:1031900000F02DF8097EFC3E00F005B880EA010041
:1031A00000F00040704780EA010000F0004000F0AD
:1031B00064B812F47F0F04BF0248704780EA010030
:1031C00000F05BB80000C07FB0FA80F310FA03F2A1
:1031D000C3F19D030AD0D90501EB1220530638BF75
:1031E000704700F1010008BF20F0010070470EF1A8
:1031F000020E2EF0030E5EF8044B244204D44FEA74
:103200004102B2F17F4F11D84FEA4003B3F17F4F33
:103210000CD80ED14FEAD07C0CEB4C0C0CF1020C0C
:10322000B2F17F4F08BF4CEBD17C04E04FF0080CAB
:1032300001E04FEAD17C0CEB4C0324FA03F404F0D8
:103240000704B4F1040C06D20EEB840CBDE8104068
:103250004CF0010C6047DFE80CF0070802024FF069
:103260000040A0F5800010BD0846420018BFD2F112
:10327000807288BF00F0004010BDFF2141EAD050AD
:10328000C0057047FDF744B902400000000000A0EF
:103290000000000005400000000000C80000000021
:1032A0000C4000000000409C00000000194000009D
:1032B0000020BCBE0000000034400000BFC91B8ECF
:1032C00000000004B5400000504BCFD06607E2CFAD
:1032D000010000006C4100003E8251AADFEEA734DD
:1032E00001000000D9420000DCB5A0E23A301F978F
:1032F000FFFFFFFFB4450000FD25A0C8E9A3C14FB3
:10330000FFFFFFFFFF3F0000000000800000000003
:10331000FF3F0000000000800000000000000000EF
:103320000000000001020304060708090000000075
:103330000102030400000000000000005F00000024
:10334000000700070000147F147F1400242A7F2A3E
:10335000120023130864620036495522500000050C
:1033600003000000001C224100000041221C00005C
:1033700014083E08140008083E08080000503000F9
:103380000000080808080800006060000000201025
:10339000080402003E5149453E0000427F400000C3
:1033A0004261514946002141454B31001814127FBA
:1033B00010002745454539003C4A49493000017114
:1033C00009050300364949493600064949291E00C6
:1033D0000036360000000056360000000814224176
:1033E00000001414141414000041221408000201F7
:1033F00051090600324979413E007E1111117E00CB
:103400007F49494936003E41414122007F414122E6
:103410001C007F49494941007F09090901003E41DB
:1034200049497A007F0808087F0000417F41000079
:103430002040413F01007F08142241007F4040406E
:1034400040007F020C027F007F0408107F003E4195
:1034500041413E007F09090906003E4151215E00BD
:103460007F091929460046494949310001017F0178
:1034700001003F4040403F001F2040201F007F20B0
:1034800018207F0063140814630007087008070001
:10349000615149454300007F41410000020408108A
:1034A00020000041417F00000402010204008080EE
:1034B00080808000000102040000205454547800F1
:1034C0007F48444438003844444420003844444849
:1034D0007F00385454541800087E090102000C5231
:1034E00052523E007F080404780000447D400000F2
:1034F0002040443D00007F102844000000417F40F0
:1035000000007C04180478007C0804047800384427
:10351000444438007C1414140800081414187C0067
:103520007C0804040800485454542000043F4440DC
:1035300020003C4040207C001C2040201C003C40DF
:1035400030403C004428102844000C5050503C00AF
:103550004464544C440000083641000000007F00E1
:1035600000000041360800000804081008000102AD
:1035700002030405060708090A0B0C0D0E0F1010B4
:10358000C0350008000000201000000050010008B5
:10359000D03500081000002020070000700100084E
:1035A0001C00000043000000F8FFFFFF0C000000BB
:1035B0000E0000000F0000002E00000000000000C0
:1035C000010000001000000000127A00000000005E
:04000005080000ED02
:00000001FF
